{
  "_format": "hh-sol-artifact-1",
  "contractName": "Shop",
  "sourceName": "contracts/Shop.sol",
  "abi": [
    {
      "inputs": [],
      "stateMutability": "nonpayable",
      "type": "constructor"
    },
    {
      "anonymous": false,
      "inputs": [
        {
          "indexed": true,
          "internalType": "address",
          "name": "previousOwner",
          "type": "address"
        },
        {
          "indexed": true,
          "internalType": "address",
          "name": "newOwner",
          "type": "address"
        }
      ],
      "name": "OwnershipTransferred",
      "type": "event"
    },
    {
      "inputs": [
        {
          "internalType": "address",
          "name": "cardContractAddr",
          "type": "address"
        }
      ],
      "name": "addCard",
      "outputs": [
        {
          "internalType": "bool",
          "name": "",
          "type": "bool"
        }
      ],
      "stateMutability": "nonpayable",
      "type": "function"
    },
    {
      "inputs": [],
      "name": "buyBoosterCards",
      "outputs": [
        {
          "internalType": "bool",
          "name": "",
          "type": "bool"
        }
      ],
      "stateMutability": "payable",
      "type": "function"
    },
    {
      "inputs": [],
      "name": "buyStarterPack",
      "outputs": [
        {
          "internalType": "bool",
          "name": "",
          "type": "bool"
        }
      ],
      "stateMutability": "payable",
      "type": "function"
    },
    {
      "inputs": [],
      "name": "cardCount",
      "outputs": [
        {
          "internalType": "uint256",
          "name": "",
          "type": "uint256"
        }
      ],
      "stateMutability": "view",
      "type": "function"
    },
    {
      "inputs": [
        {
          "internalType": "uint256",
          "name": "",
          "type": "uint256"
        }
      ],
      "name": "cards",
      "outputs": [
        {
          "internalType": "address",
          "name": "",
          "type": "address"
        }
      ],
      "stateMutability": "view",
      "type": "function"
    },
    {
      "inputs": [],
      "name": "owner",
      "outputs": [
        {
          "internalType": "address",
          "name": "",
          "type": "address"
        }
      ],
      "stateMutability": "view",
      "type": "function"
    },
    {
      "inputs": [],
      "name": "renounceOwnership",
      "outputs": [],
      "stateMutability": "nonpayable",
      "type": "function"
    },
    {
      "inputs": [
        {
          "internalType": "address",
          "name": "newOwner",
          "type": "address"
        }
      ],
      "name": "transferOwnership",
      "outputs": [],
      "stateMutability": "nonpayable",
      "type": "function"
    }
  ],
  "bytecode": "0x608060405234801561001057600080fd5b5061002d61002261003a60201b60201c565b61004260201b60201c565b6000600281905550610106565b600033905090565b60008060009054906101000a900473ffffffffffffffffffffffffffffffffffffffff169050816000806101000a81548173ffffffffffffffffffffffffffffffffffffffff021916908373ffffffffffffffffffffffffffffffffffffffff1602179055508173ffffffffffffffffffffffffffffffffffffffff168173ffffffffffffffffffffffffffffffffffffffff167f8be0079c531659141344cd1fd0a4f28419497f9722a3daafe3b4186f6b6457e060405160405180910390a35050565b610fbd806101156000396000f3fe60806040526004361061007b5760003560e01c80638da5cb5b1161004e5780638da5cb5b1461011d5780638dc1076814610148578063f114572714610185578063f2fde38b146101a35761007b565b80631b6cde10146100805780633dc50952146100ab578063715018a6146100e85780638841b3c3146100ff575b600080fd5b34801561008c57600080fd5b506100956101cc565b6040516100a2919061095a565b60405180910390f35b3480156100b757600080fd5b506100d260048036038101906100cd91906109d8565b6101d2565b6040516100df9190610a20565b60405180910390f35b3480156100f457600080fd5b506100fd610397565b005b61010761041f565b6040516101149190610a20565b60405180910390f35b34801561012957600080fd5b50610132610545565b60405161013f9190610a4a565b60405180910390f35b34801561015457600080fd5b5061016f600480360381019061016a9190610a91565b61056e565b60405161017c9190610a4a565b60405180910390f35b61018d6105a1565b60405161019a9190610a20565b60405180910390f35b3480156101af57600080fd5b506101ca60048036038101906101c591906109d8565b610727565b005b60025481565b60006101dc61081f565b73ffffffffffffffffffffffffffffffffffffffff166101fa610545565b73ffffffffffffffffffffffffffffffffffffffff1614610250576040517f08c379a000000000000000000000000000000000000000000000000000000000815260040161024790610b1b565b60405180910390fd5b6002600081548092919061026390610b6a565b919050555060008290508073ffffffffffffffffffffffffffffffffffffffff166301ffc9a76380ac58cd6040518263ffffffff1660e01b81526004016102aa9190610c27565b60206040518083038186803b1580156102c257600080fd5b505afa1580156102d6573d6000803e3d6000fd5b505050506040513d601f19601f820116820180604052508101906102fa9190610c6e565b610339576040517f08c379a000000000000000000000000000000000000000000000000000000000815260040161033090610d0d565b60405180910390fd5b8260016000600254815260200190815260200160002060006101000a81548173ffffffffffffffffffffffffffffffffffffffff021916908373ffffffffffffffffffffffffffffffffffffffff1602179055506001915050919050565b61039f61081f565b73ffffffffffffffffffffffffffffffffffffffff166103bd610545565b73ffffffffffffffffffffffffffffffffffffffff1614610413576040517f08c379a000000000000000000000000000000000000000000000000000000000815260040161040a90610b1b565b60405180910390fd5b61041d6000610827565b565b6000670de0b6b3a7640000341461046b576040517f08c379a000000000000000000000000000000000000000000000000000000000815260040161046290610d79565b60405180910390fd5b60005b600381101561053d57600061048333836108eb565b905060006001600083815260200190815260200160002060009054906101000a900473ffffffffffffffffffffffffffffffffffffffff1690508073ffffffffffffffffffffffffffffffffffffffff166340d097c3336040518263ffffffff1660e01b81526004016104f69190610a4a565b600060405180830381600087803b15801561051057600080fd5b505af1158015610524573d6000803e3d6000fd5b505050505050808061053590610b6a565b91505061046e565b506001905090565b60008060009054906101000a900473ffffffffffffffffffffffffffffffffffffffff16905090565b60016020528060005260406000206000915054906101000a900473ffffffffffffffffffffffffffffffffffffffff1681565b6000670de0b6b3a764000034146105ed576040517f08c379a00000000000000000000000000000000000000000000000000000000081526004016105e490610d79565b60405180910390fd5b6000600190505b600254811161071f5760006001600083815260200190815260200160002060009054906101000a900473ffffffffffffffffffffffffffffffffffffffff1690508073ffffffffffffffffffffffffffffffffffffffff166340d097c3336040518263ffffffff1660e01b815260040161066e9190610a4a565b600060405180830381600087803b15801561068857600080fd5b505af115801561069c573d6000803e3d6000fd5b505050508073ffffffffffffffffffffffffffffffffffffffff166340d097c3336040518263ffffffff1660e01b81526004016106d99190610a4a565b600060405180830381600087803b1580156106f357600080fd5b505af1158015610707573d6000803e3d6000fd5b5050505050808061071790610b6a565b9150506105f4565b506001905090565b61072f61081f565b73ffffffffffffffffffffffffffffffffffffffff1661074d610545565b73ffffffffffffffffffffffffffffffffffffffff16146107a3576040517f08c379a000000000000000000000000000000000000000000000000000000000815260040161079a90610b1b565b60405180910390fd5b600073ffffffffffffffffffffffffffffffffffffffff168173ffffffffffffffffffffffffffffffffffffffff161415610813576040517f08c379a000000000000000000000000000000000000000000000000000000000815260040161080a90610e0b565b60405180910390fd5b61081c81610827565b50565b600033905090565b60008060009054906101000a900473ffffffffffffffffffffffffffffffffffffffff169050816000806101000a81548173ffffffffffffffffffffffffffffffffffffffff021916908373ffffffffffffffffffffffffffffffffffffffff1602179055508173ffffffffffffffffffffffffffffffffffffffff168173ffffffffffffffffffffffffffffffffffffffff167f8be0079c531659141344cd1fd0a4f28419497f9722a3daafe3b4186f6b6457e060405160405180910390a35050565b60008042848460405160200161090393929190610e94565b6040516020818303038152906040528051906020012060001c905060016002548261092e9190610f00565b6109389190610f31565b91505092915050565b6000819050919050565b61095481610941565b82525050565b600060208201905061096f600083018461094b565b92915050565b600080fd5b600073ffffffffffffffffffffffffffffffffffffffff82169050919050565b60006109a58261097a565b9050919050565b6109b58161099a565b81146109c057600080fd5b50565b6000813590506109d2816109ac565b92915050565b6000602082840312156109ee576109ed610975565b5b60006109fc848285016109c3565b91505092915050565b60008115159050919050565b610a1a81610a05565b82525050565b6000602082019050610a356000830184610a11565b92915050565b610a448161099a565b82525050565b6000602082019050610a5f6000830184610a3b565b92915050565b610a6e81610941565b8114610a7957600080fd5b50565b600081359050610a8b81610a65565b92915050565b600060208284031215610aa757610aa6610975565b5b6000610ab584828501610a7c565b91505092915050565b600082825260208201905092915050565b7f4f776e61626c653a2063616c6c6572206973206e6f7420746865206f776e6572600082015250565b6000610b05602083610abe565b9150610b1082610acf565b602082019050919050565b60006020820190508181036000830152610b3481610af8565b9050919050565b7f4e487b7100000000000000000000000000000000000000000000000000000000600052601160045260246000fd5b6000610b7582610941565b91507fffffffffffffffffffffffffffffffffffffffffffffffffffffffffffffffff821415610ba857610ba7610b3b565b5b600182019050919050565b6000819050919050565b60007fffffffff0000000000000000000000000000000000000000000000000000000082169050919050565b60008160e01b9050919050565b6000610c11610c0c610c0784610bb3565b610be9565b610bbd565b9050919050565b610c2181610bf6565b82525050565b6000602082019050610c3c6000830184610c18565b92915050565b610c4b81610a05565b8114610c5657600080fd5b50565b600081519050610c6881610c42565b92915050565b600060208284031215610c8457610c83610975565b5b6000610c9284828501610c59565b91505092915050565b7f4361726420636f6e747261637420646f6573206e6f7420737570706f7274204560008201527f5243373231000000000000000000000000000000000000000000000000000000602082015250565b6000610cf7602583610abe565b9150610d0282610c9b565b604082019050919050565b60006020820190508181036000830152610d2681610cea565b9050919050565b7f4d7573742073656e64203120534d520000000000000000000000000000000000600082015250565b6000610d63600f83610abe565b9150610d6e82610d2d565b602082019050919050565b60006020820190508181036000830152610d9281610d56565b9050919050565b7f4f776e61626c653a206e6577206f776e657220697320746865207a65726f206160008201527f6464726573730000000000000000000000000000000000000000000000000000602082015250565b6000610df5602683610abe565b9150610e0082610d99565b604082019050919050565b60006020820190508181036000830152610e2481610de8565b9050919050565b6000819050919050565b610e46610e4182610941565b610e2b565b82525050565b60008160601b9050919050565b6000610e6482610e4c565b9050919050565b6000610e7682610e59565b9050919050565b610e8e610e898261099a565b610e6b565b82525050565b6000610ea08286610e35565b602082019150610eb08285610e7d565b601482019150610ec08284610e35565b602082019150819050949350505050565b7f4e487b7100000000000000000000000000000000000000000000000000000000600052601260045260246000fd5b6000610f0b82610941565b9150610f1683610941565b925082610f2657610f25610ed1565b5b828206905092915050565b6000610f3c82610941565b9150610f4783610941565b9250827fffffffffffffffffffffffffffffffffffffffffffffffffffffffffffffffff03821115610f7c57610f7b610b3b565b5b82820190509291505056fea2646970667358221220958dc72d68b41ccfd9e9a1685cf17e4fb174f584a4feca79998835e1f88e601b64736f6c63430008090033",
  "linkReferences": {},
  "deployedLinkReferences": {}
}